:020000040800F2
:1000000008040020890E0008830B0008850B0008F7
:10001000870B0008890B00088B0B0008000000000C
:100020000000000000000000000000008D0B000830
:100030008F0B000800000000910B0008930B0008D4
:10004000AD0E0008B10E0008B50E0008B90E00088C
:10005000BD0E0008C10E0008C50E0008C90E00083C
:10006000CD0E0008D10E0008D50E0008D90E0008EC
:10007000DD0E0008E10E0008E50E0008E90E00089C
:10008000ED0E0008F10E0008F50E0008F90E00084C
:10009000FD0E0008010F0008050F0008090F0008F9
:1000A0000D0F0008110F0008150F0008190F0008A8
:1000B0001D0F0008210F0008250F0008290F000858
:1000C0002D0F0008310F0008350F0008390F000808
:1000D0003D0F0008410F0008450F0008490F0008B8
:1000E0004D0F0008510F0008550F0008590F000868
:1000F0005D0F0008610F0008650F0008690F000818
:100100006D0F0008710F0008750F0008790F0008C7
:100110007D0F0008810F0008850F0008890F000877
:100120008D0F0008910F0008950F0008990F000827
:1001300000000000000000000000000000000000BF
:10014000000000F800000000000000333000000054
:1001500000100C06100C060000000000000000005B
:1001600040C07840C0784000043F04043F040400CD
:10017000007088FC08300000001820FF211E0000DD
:10018000F008F000E018000000211C031E211E00F2
:1001900000F00888700000001E2123241927211078
:1001A00010160E000000000000000000000000001B
:1001B000000000E0180402000000000718204000C2
:1001C00000020418E00000000040201807000000B2
:1001D000404080F0804040000202010F0102020016
:1001E000000000F0000000000101011F01010100FA
:1001F000000000000000000080B07000000000005F
:1002000000000000000000000001010101010101E7
:10021000000000000000000000303000000000007E
:100220000000000080601804006018060100000053
:1002300000E010080810E000000F102020100F0050
:10024000001010F8000000000020203F20200000D7
:10025000007008080888700000302824222130002F
:1002600000300888884830000018202020110E0037
:100270000000C02010F8000000070424243F2400E0
:1002800000F80888880808000019212020110E00B5
:1002900000E0108888180000000F112020110E00C7
:1002A00000380808C83808000000003F00000000BF
:1002B0000070880808887000001C222121221C0080
:1002C00000E010080810E0000000312222110F00A9
:1002D000000000C0C000000000000030300000003E
:1002E00000000080000000000000806000000000AE
:1002F00000008040201008000001020408102000C7
:100300004040404040404000040404040404040011
:1003100000081020408000000020100804020100A6
:10032000007048080808F0000000003036010000A6
:10033000C030C828E810E0000718272423140B0059
:100340000000C038E0000000203C230202273820D3
:1003500008F8888888700000203F202020110E00B7
:10036000C0300808080838000718202020100800AE
:1003700008F808080810E000203F202020100F0097
:1003800008F88888E8081000203F20202320180063
:1003900008F88888E8081000203F200003000000CB
:1003A000C03008080838000007182020221E02006C
:1003B00008F808000008F808203F210101213F202B
:1003C000000808F8080800000020203F2020000056
:1003D00000000808F8080800C08080807F00000046
:1003E00008F888C028180800203F2001263820007F
:1003F00008F8080000000000203F202020203000E6
:1004000008F8F800F8F80800203F003F003F2000FF
:1004100008F830C00008F808203F200007183F0007
:10042000E01008080810E0000F10202020100F0036
:1004300008F808080808F000203F21010101000029
:10044000E01008080810E0000F18242438504F006E
:1004500008F8888888887000203F2000030C30202E
:1004600000708808080838000038202121221C006C
:10047000180808F8080818000000203F20000000B5
:1004800008F808000008F808001F202020201F009E
:100490000878880000C83808000007380E010000FE
:1004A000F80800F80008F800033C0700073C0300C8
:1004B000081868808068180820302C03032C30202E
:1004C0000838C800C83808000000203F200000009D
:1004D00010080808C83808002038262120201800F5
:1004E000000000FE020202000000007F40404000C9
:1004F000000C30C000000000000000010638C00001
:1005000000020202FE000000004040407F000000A8
:1005100000000402020204000000000000000000CD
:1005200000000000000000008080808080808080CB
:1005300000020204000000000000000000000000B3
:1005400000008080808000000019242222223F20A9
:1005500008F8008080000000003F112020110E00EC
:100560000000008080800000000E1120202011007B
:10057000000000808088F800000E112020103F202D
:100580000000808080800000001F222222221300B1
:10059000008080F0888888180020203F20200000FC
:1005A0000000808080808000006B949494936000B1
:1005B00008F8008080800000203F210000203F20BC
:1005C00000809898000000000020203F20200000BC
:1005D000000000809898000000C08080807F0000AC
:1005E00008F8000080808000203F24022D30200089
:1005F000000808F8000000000020203F2020000034
:100600008080808080808000203F20003F20003F4D
:100610008080008080800000203F210000203F205B
:100620000000808080800000001F202020201F000C
:10063000808000808000000080FFA12020110E003B
:100640000000008080808000000E112020A0FF802C
:10065000808080008080800020203F2120000100D9
:10066000000080808080800000332424242419002E
:10067000008080E0808000000000001F202000003B
:100680008080000000808000001F202020103F207C
:10069000808080000080808000010E30080601000C
:1006A00080800080008080800F300C030C300F00B1
:1006B00000808000808080000020312E0E312000DC
:1006C000808080000080808080818E70180601000C
:1006D00000808080808080000021302C222130002A
:1006E00000000000807C020200000000003F40404B
:1006F00000000000FF00000000000000FF000000FC
:100700000002027C800000000040403F000000002A
:1007100000060101020204040000000000000000C5
:1007200070B504000D00EDB2002D05D02021DFF8DA
:10073000080300F020FA04E02021DFF8FC0200F0BA
:100740001DFA0821DFF8F00200F018FA0020060078
:10075000F6B2082E19DA4021DFF8DC0200F00EFABA
:10076000200605D58021DFF8D00200F004FA04E06D
:100770008021DFF8C40200F001FA4021DFF8B8025E
:1007800000F0F9F96400761CE2E70821DFF8A8021E
:1007900000F0F1F92021DFF8A00200F0ECF970BDC3
:1007A00038B504000D000021B5F15000C0B2FFF7CC
:1007B000B7FF00212000C0B2000950F01000C0B205
:1007C000FFF7AEFF002114F00F0050F00100C0B29F
:1007D000FFF7A6FF31BD80B500218D20FFF7A0FFF8
:1007E00000211420FFF79CFF0021AF20FFF798FFA6
:1007F00001BD38B500200400E4B2082C1ADA00214B
:10080000B4F15000C0B2FFF78BFF00210020FFF7CA
:1008100087FF00211020FFF783FF00200500EDB2C5
:10082000802D05DA01210020FFF77AFF6D1CF6E725
:10083000641CE1E731BD2DE9F04104008846150054
:1008400000260027B5F120000600E4B2802C03DB6F
:100850000020040018F102084146C9B22000C0B2CD
:10086000FFF79EFF00200700FFB2082F0ADA0121E0
:100870007248F6B2FFB217EB0612805CFFF750FF2A
:100880007F1CF1E718F10101C9B22000C0B2FFF7E7
:1008900087FF00200700FFB2082F0BDA012167480D
:1008A000F6B2FFB217EB06121044007AFFF738FFDA
:1008B0007F1CF0E7BDE8F081F8B504000D001600DC
:1008C0000027FFB2F05D002810D0FFB2F25D2900D2
:1008D000C9B22000C0B2FFF7AEFF0834E4B2792CF1
:1008E00002DB00200400AD1C7F1CEAE7F1BD80B5EF
:1008F0000121042000F04EF9F820ADF8000010208E
:100900008DF8030003208DF8020069464A4800F084
:1009100097F8F821484800F02EF91021464800F0D9
:100920002AF9642000F05CF91021434800F026F910
:10093000C82000F055F910213F4800F01CF90021B3
:10094000AE20FFF7EDFE00210020FFF7E9FE0021B9
:100950001020FFF7E5FE00214020FFF7E1FE002117
:100960008120FFF7DDFE0021CF20FFF7D9FE002117
:10097000A120FFF7D5FE0021C820FFF7D1FE0021FE
:10098000A620FFF7CDFE0021A820FFF7C9FE002119
:100990003F20FFF7C5FE0021D320FFF7C1FE002155
:1009A0000020FFF7BDFE0021D520FFF7B9FE002192
:1009B0008020FFF7B5FE0021D920FFF7B1FE00210E
:1009C000F120FFF7ADFE0021DA20FFF7A9FE00219C
:1009D0001220FFF7A5FE0021DB20FFF7A1FE00217A
:1009E0004020FFF79DFE00212020FFF799FE002107
:1009F0000220FFF795FE00218D20FFF791FE0021D8
:100A00001420FFF78DFE0021A420FFF789FE0021AE
:100A1000A620FFF785FE0021AF20FFF781FE002111
:100A2000AF20FFF77DFEFFF7E4FE00210020FFF777
:100A3000B7FE01BD000000000008014030010008C1
:100A4000F0B500270022002300240025002691F89D
:100A500003C01CF00F0C674691F803C05FEACC6C32
:100A600003D591F902C05CEA070791F800C05FEA7C
:100A70000C6C3AD0D0F800C065465FF0000C6346BD
:100A8000082B31D25FF0010C1CFA03FC6446B1F86C
:100A900000C014EA0C0C6246A24223D15FEA830C28
:100AA00064465FF00F0C1CFA04FC6646B54317FA67
:100AB00004FC5CEA050591F903C0BCF1280F06D1DE
:100AC0005FF0010C1CFA03FCC0F814C00AE091F9B5
:100AD00003C0BCF1480F05D15FF0010C1CFA03FC08
:100AE000C0F810C05B1CCBE70560B1F800C0BCF1DA
:100AF000FF0F3FDDD0F804C065465FF0000C634691
:100B0000082B36D25FF0010C13F1080E1CFA0EFC14
:100B10006446B1F800C014EA0C0C6246A24226D129
:100B20005FEA830C64465FF00F0C1CFA04FC664617
:100B3000B54317FA04FC5CEA050591F903C0BCF162
:100B4000280F07D15FF0010C13F1080E1CFA0EFC00
:100B5000C0F814C091F903C0BCF1480F07D15FF091
:100B6000010C13F1080E1CFA0EFCC0F810C05B1C3F
:100B7000C6E74560F0BD89B20161704789B2416145
:100B800070477047FEE7FEE7FEE7FEE770477047F5
:100B90007047704749B2002905D0064A12680243DF
:100BA000044B1A6004E0034A12688243014B1A6046
:100BB000704700001810024080B57FF0040000F07C
:100BC0003FF8184800681849B0FBF1F01749087061
:100BD000164800784FF47A7148431549088001BDE2
:100BE00080B2134A128802FB00F2124B1A600022F4
:100BF000114B1A60114A126852F001020F4B1A6031
:100C00000E4A1268110011F00112012AF8D00B4AA5
:100C1000126852085200094B1A600022064B1A60F3
:100C2000704700000000002000127A00060000203B
:100C30000400002014E000E018E000E010E000E014
:100C4000042806D10749096851F00401054A1160DA
:100C500005E00449096831F00401024A1160704757
:100C60000000000010E000E080B54E48006850F041
:100C700001004C4908604C4800684C4908404A490A
:100C80000860484800684A490840464908604548A5
:100C9000006830F48020434908604348006830F41D
:100CA000FE00414908605FF41F004249086000F0FF
:100CB00005F85FF000604049086001BD80B500F0B4
:100CC00001F801BD82B0002001900020009035485D
:100CD000006850F48030334908603248006810F4EE
:100CE000003000900198401C01900098002803D12A
:100CF0000198B0F5A06FF0D12A480068800302D5B2
:100D00000120009001E0002000900098012847D1C8
:100D10002A48006850F010002849086027480068F9
:100D200080088000254908602448006850F00200CF
:100D3000224908601C4800681B4908601A4800687E
:100D4000194908601848006850F480601649086026
:100D50001548006830F47C10134908601248006898
:100D600050F4E810104908600E48006850F0807098
:100D70000C4908600B4800688001FBD50A480068F0
:100D800080088000084908600748006850F00200A9
:100D9000054908600448006810F00C000828F9D1E3
:100DA00002B0704700100240041002400000FFF83B
:100DB000FFFFF6FE0810024008ED00E000200240B0
:100DC00010B450F8041B79B102684368024408303B
:100DD000DC0744BFA9F10104E31852F8044B43F8BF
:100DE000044B091FF9D1ECE710BC704710B5074957
:100DF00079441831064C7C44163404E00A68081D16
:100E0000114488470146A142F8D110BD2C000000D2
:100E10003C00000080B5FFF727FFFFF7CDFEFFF78E
:100E200066FDFFF7D8FC03A204213220FFF744FD42
:100E3000F9E700BF6E75000089FFFFFF08000000A2
:100E400064000000000000200000000000F00BF82B
:100E5000002801D0FFF7CAFF0020AFF30080FFF7A2
:100E6000D9FF00F002F80120704700F001B800003F
:100E70000746384600F002F8FBE70000202109038E
:100E800026311820ABBEF9E70148804701480047EA
:100E9000690C0008990E0008AFF30080AFF30080E2
:100EA000FFF7D4FF00A24A0400000000FFF7FEBFD6
:100EB000FFF7FEBFFFF7FEBFFFF7FEBFFFF7FEBF66
:100EC000FFF7FEBFFFF7FEBFFFF7FEBFFFF7FEBF56
:100ED000FFF7FEBFFFF7FEBFFFF7FEBFFFF7FEBF46
:100EE000FFF7FEBFFFF7FEBFFFF7FEBFFFF7FEBF36
:100EF000FFF7FEBFFFF7FEBFFFF7FEBFFFF7FEBF26
:100F0000FFF7FEBFFFF7FEBFFFF7FEBFFFF7FEBF15
:100F1000FFF7FEBFFFF7FEBFFFF7FEBFFFF7FEBF05
:100F2000FFF7FEBFFFF7FEBFFFF7FEBFFFF7FEBFF5
:100F3000FFF7FEBFFFF7FEBFFFF7FEBFFFF7FEBFE5
:100F4000FFF7FEBFFFF7FEBFFFF7FEBFFFF7FEBFD5
:100F5000FFF7FEBFFFF7FEBFFFF7FEBFFFF7FEBFC5
:100F6000FFF7FEBFFFF7FEBFFFF7FEBFFFF7FEBFB5
:100F7000FFF7FEBFFFF7FEBFFFF7FEBFFFF7FEBFA5
:100F8000FFF7FEBFFFF7FEBFFFF7FEBFFFF7FEBF95
:0C0F9000FFF7FEBFFFF7FEBFFFF7FEBF3C
:0400000508000E9948
:00000001FF
