:020000040800F2
:10000000D0110020211500086714000869140008A9
:100010006B1400086D1400086F1400080000000045
:100020000000000000000000000000007114000843
:1000300073140008000000000B0A00086D0E000891
:100040003D15000841150008451500084915000830
:100050004D150008511500085515000859150008E0
:100060005D15000861150008651500086915000890
:100070006D15000871150008751500087915000840
:100080007D150008811500088515000889150008F0
:100090008D150008911500089515000899150008A0
:1000A0009D150008A1150008A5150008A915000850
:1000B000AD150008B1150008B5150008B915000800
:1000C000BD150008C1150008C5150008C9150008B0
:1000D000CD150008D1150008D5150008D915000860
:1000E000DD150008E1150008E5150008E915000810
:1000F000ED150008F1150008F5150008F9150008C0
:10010000FD1500080116000805160008091600086C
:100110000D1600081116000815160008191600081B
:100120001D160008211600082516000829160008CB
:1001300080B500F0A7FB00F05EF900F085F900F053
:10014000E1F900F02BF900F0E5FB00F015FC00F000
:100150009DF900F0B9F900F096FB01BDDFF8B0069B
:100160000078012807D1DFF8AC060178FF2902D01A
:100170000178491C0170704710B50024DFF8900623
:100180000078012833D100F023FC0400DFF8841646
:100190000878002802D00878401E087008780028E7
:1001A00022D1DFF87406007800281DD100F013FA80
:1001B000DFF86806DFF86816DFF868260B7852F873
:1001C000232002600978DFF86026127891420BD074
:1001D0000168896B491C00688163DFF8500601687B
:1001E000491C016000F00DFC200000F0F5FB10BD83
:1001F00010B50024DFF818060078012812D100F0AD
:10020000E7FB0400DFF80C060078002807D1DFF8D0
:1002100008060178FF2902D00178491C01702000EE
:1002200000F0DAFB10BD10B50024DFF8E40500781B
:10023000012823D100F0CCFB0400DFF8DC1508789E
:10024000002818D00878401E0870087800280ED1C1
:10025000DFF8C0050078002805D1200000F0BCFBC5
:1002600000F08FF90AE0200000F0B6FB06E0200065
:1002700000F0B2FB02E0200000F0AEFB10BD80B544
:10028000DFF88C050078002815D100F0A4F9DFF81C
:1002900090050178DFF890251170DFF88015DFF800
:1002A0008425007852F8200008600868DFF880157F
:1002B000086000F094FB01BDF8B5002700F029FBB1
:1002C00000F086FB0600DFF878050168491C016034
:1002D000300000F081FBDFF83805007801285CD1A0
:1002E000DFF860050178002903D0022907D003D385
:1002F0000AE0012005000BE00020050008E00121D4
:100300000D000121017003E001210D0000210170A9
:100310002800C0B2002840D0DFF82C050068040097
:1003200094F832003F2838D000F052FB0600E06A13
:1003300000282DD0E06A401EE062E06A002827D144
:1003400094F8300010F0370F09D094F8300010F016
:10035000C80084F83000012084F8310002E0002059
:1003600084F8310094F83000000711D4DFF8DC1471
:100370000A7894F8360002430A70DFF8D41494F82F
:1003800034000A5C94F83500024394F834000A54AF
:100390006469300000F020FBC2E7F1BDF8B5DFF87A
:1003A000B874C821380000F0E2F80021080080B2DB
:1003B000092812D2481C040014200A0092B24243B9
:1003C0003A441500220092B200FB02F038440600C5
:1003D000002028706E60491CE8E70A0092B21420E1
:1003E000424307EB02000022027000224260DFF865
:1003F0006C241760F1BD0020DFF844140860002071
:10040000DFF8101408700020DFF80C1408700020CA
:10041000DFF84C1408700020DFF8F4130870002097
:10042000DFF8081408600020DFF8081408600020D6
:10043000DFF8301408600020DFF8FC1308600020AB
:10044000DFF8F813087070470020DFF80014087018
:1004500000200100C9B2082907D20021DFF8F023EB
:100460000300DBB2D154401CF3E70021DFF8B823CE
:1004700011700021DFF8A82311700021DFF89C2300
:1004800011600021DFF8A8231160704780B586B0A5
:10049000DFF8D4030321049100210391802102910C
:1004A00001904FF6FF7100913F2310F5FE7200217D
:1004B0000FF2491000F036FB05AADFF8B0133F2019
:1004C00000F094FB07B000BD80B586B0DFF8A00354
:1004D00003210491002103918021029101904FF6A4
:1004E000FE7100913E2310F5FE7200210FF22D10D7
:1004F00000F018FB05AADFF87C133E2000F076FB25
:1005000007B000BDF8B5DFF870734FF47C713800A8
:1005100000F02DF84FF48071C24800F028F8002157
:100520000800C0B20B2812D2481C040054200A0054
:10053000D2B242433A4415002200D2B200FB02F08C
:10054000384406006E6162A0E864491CE8E70A00CE
:10055000D2B25420424307EB0200002242615CA267
:10056000C2640022B84B1A60C44A1760F1BD0A0089
:1005700092B2002A04D000220270401C491EF6E705
:10058000704738B5002500F023FA0400A148007830
:1005900000281CD1A0480078002818D100F01BF8D2
:1005A0009E489F499F4A0B7852F8232002600978A1
:1005B0009D4A127891420AD00168896B491C0068F3
:1005C00081639A480168491C016000F016FA200016
:1005D00000F002FA31BD10B49E499C480078085CD6
:1005E0000200D2B29A4B0400E4B21B5DC95C11EB6D
:1005F000C2018B4A117010BC7047000038B504006E
:10060000002500F0E5F905008A480168491C0160F1
:10061000280000F0E1F900F038F9F2E7F8B505003C
:10062000002486480078002803D1282000F0D2FB5F
:10063000F7E7814E30686421B0FBF1F0306030683C
:10064000002805D100208E490870FF2000F051FBE2
:1006500000F0BEF90400834F76480168396000213C
:100660000160200000F0B8F938683168B0FBF1F0A3
:10067000D0F164008249087000F008F900F004F835
:10068000142000F0A7FBE3E77CB500263000C0B2E1
:1006900040281CD269463000C0B200F0DEFA0500E6
:1006A0002800C0B2002810D15E483100C9B250F80D
:1006B00021000400002C08D0012C06D0A068E168BD
:1006C00000EB810060640198A064761CDEE773BDD6
:1006D0003F0000002DE9FE4F06000C9FDDF834803E
:1006E0000E9D5FF0000A00F073F9814663480468CC
:1006F000002C00F0858061690160484600F06CF9CB
:100700000098206084F83260002084F830000020D7
:1007100084F831000020E062C4F80480E7600198AA
:10072000A0602582BDF808006082002084F83700B0
:100730003000C0B2C00884F8340016F0070084F816
:100740003300012194F8340011FA00F084F83600E7
:1007500094F83300814084F835100020E0610020D7
:100760006062002020620020A0630020206400203E
:10077000E063002060640020A06424A0E0645FF0D7
:10078000000A5046C0B2002808D100205146C9B224
:1007900004EB810108651AF1010AF2E7200000F07C
:1007A000B7F8200000F070F800F012F983461D48F9
:1007B0003100C9B240F82140234908686061002037
:1007C000A0610868002801D0086884610C601F4996
:1007D0000A7894F8360002430A701D4994F83400F0
:1007E0000A5C94F83500024394F834000A541C481B
:1007F0000178491C0170584600F0EEF8002003E033
:10080000484600F0E9F84220BDE8FE8F3F000000B6
:10081000C60D0020C10D0020C20D0020AC0D00202F
:10082000C40D0020F40A0020C30D00208C0D002010
:10083000A40D0020A00D0020980D0020C00D002068
:10084000B80D0020C80D0020B00D0020C50D0020FF
:10085000840D0020D8100008F40B0020900D00201B
:10086000C70D00209C0D0020F40500200015000895
:10087000F40300201015000804000020A80D00203B
:10088000BF0D00207047704770477047704730B405
:10089000040010005FF080750560001F0460001FF9
:1008A0007FF001050560001F5FF012350560001F35
:1008B0005FF003350560001F5FF002350560001F23
:1008C0005FF001350560001F0160001F5FF011350A
:1008D0000560001F5FF010350560001F5FF00935EF
:1008E0000560001F5FF008350560001F5FF00735E9
:1008F0000560001F5FF006350560001F5FF00535DD
:100900000560001F5FF00435056030BC704770471C
:1009100070477047F8B5174F50213800FFF727FE92
:100920000020010089B2042912D2411C0C000100F0
:1009300089B2090139440D00210089B20901394405
:100940000E00002129706E6008A1E960401CE8E7F4
:10095000010089B20901394400220A7000224A606C
:1009600002A2CA60024A1760F1BD00003F00000009
:10097000940D0020340D0020F8B5144F7821380074
:10098000FFF7F5FD0021080080B2042810D2481CB2
:10099000040018200A0092B242433A441500220093
:1009A00092B200FB02F0384406002E60491CEAE7D0
:1009B0000A0092B21820424307EB020000220260B4
:1009C000014A1760F1BD0000B40D0020BC0C0020EE
:1009D000EFF3108072B6704780F3108870471B48A1
:1009E000FF210170002080F309881948012101705E
:1009F00018481949016062B6FEE7164816490160B9
:100A00007047144814490160704772B6EFF30980CB
:100A100028B1203880E8F00F10490968086000B557
:100A20000F4880475DF804EB0E480F490A780270C2
:100A30000A480E490A680260106890E8F00F2030FA
:100A400080F309884EF0040E62B6704722ED00E094
:100A5000C60D002004ED00E000000010A40D0020F1
:100A60000F090008C30D0020C40D0020AC0D0020AC
:100A70002DE9FE4F04000D0016001F005FF0000975
:100A8000FFF7A6FF8046DFF830030078002804D087
:100A90004046FFF7A1FF3C2042E0DFF80893380012
:100AA000C0B259F82000002836D101203900C9B25F
:100AB00049F821004046FFF78FFF0023320029004C
:100AC0002000FFF7E4FE8246002002900020019003
:100AD000002000900023002251463800C0B2FFF7EA
:100AE000F9FD83465846C0B2002807D1DFF8C4029A
:100AF000007801280DD1FFF744FD0AE0FFF768FFF9
:100B0000804600203900C9B249F821004046FFF76D
:100B100063FF5846C0B203E04046FFF75DFF282060
:100B2000BDE8FE8F2DE9F74F84B01D00119E129F86
:100B3000149C5FF00009FFF74BFF8046DFF8780256
:100B40000078002804D04046FFF746FF3C204AE0EA
:100B5000DFF850922800C0B259F8200000283ED19A
:100B600001202900C9B249F821004046FFF734FFAF
:100B7000220092B23900300000F020F923009BB22D
:100B8000069A05990498FFF782FE8246200080B2FB
:100B90000290139801900097BDF840303200514602
:100BA0002800C0B2FFF796FD83465846C0B2002821
:100BB00007D1DFF80002007801280DD1FFF7E1FC32
:100BC0000AE0FFF705FF804600202900C9B249F876
:100BD00021004046FFF700FF5846C0B203E0404600
:100BE000FFF7FAFE282007B0BDE8F08F2DE9F041AD
:100BF00005000E0017000024DFF8BC010078002873
:100C000002D01220387026E0FFF7E2FE804628006E
:100C1000C0B2FF2804D16448006890F83200050093
:100C200060482900C9B250F82140002C05D1404647
:100C3000FFF7D2FE432038700DE0012C05D140466D
:100C4000FFF7CAFE4320387005E0E6644046FFF730
:100C5000C3FE00203870BDE8F0812DE9F0470500A3
:100C60000E0000240020306000207060FFF7B0FE0E
:100C700007002800C0B2FF2804D14B48006890F854
:100C80003200050047482900C9B250F82140002C25
:100C900004D13800FFF7A0FE432028E0012C04D146
:100CA0003800FFF799FE432021E0207CC00704D4E0
:100CB0003800FFF791FE452019E05FF00008D4F8F6
:100CC0000C90D4F808A03800FFF786FE504610F1CB
:100CD000040A0068002802D118F10108F6E75FEA6B
:100CE00088003060B9EB0800800070600020BDE82B
:100CF000F0872DE9F04105000024FFF769FE0600AA
:100D00002800C0B2FF2806D12748006890F83200BA
:100D1000050001270AE028002349096891F83210EC
:100D2000C0B2884201D1012700E000271D482900F8
:100D3000C9B250F82140002C04D13000FFF74CFE1E
:100D400048202DE0012C04D13000FFF745FE432060
:100D500026E094F8348015494046C0B20A5C94F805
:100D6000350082434046C0B20A544046C0B2085CD7
:100D7000002805D10E490A7894F8360082430A709B
:100D800094F8300050F0080084F830003000FFF78D
:100D900023FE3800C0B2012801D1FFF7F2FB00208A
:100DA000BDE8F081F40A0020A40D0020840D00208D
:100DB000C50D0020C60D0020C10D0020D30708D5A9
:100DC000930706D5002904D0491E00230360001DA7
:100DD000F8E7704770B5040000261848007800282E
:100DE0002BD117480078002827D1002C25D0FFF7F9
:100DF000EFFD06001349086890F834000500124A18
:100E00002800C0B2135C086890F8350083432800BE
:100E1000C0B213542800C0B2105C002806D10B4A9F
:100E20001378086890F83600834313700868C4622A
:100E30003000FFF7D1FDFFF7A4FB70BDC10D00200E
:100E4000C20D0020A40D0020840D0020C50D00203F
:100E500080B5FFF7CDF901BD80B5FFF7E4F901BD1D
:100E600010B504002000FFF7B5FF10BD80B53E4867
:100E70000078012805D1FFF771F9FFF71DFAFFF798
:100E80007BF901BD80B57FF0040000F084F837489D
:100E90000168374AB1FBF2F1364A117000683449F3
:100EA000B0FBF1F141F2883041430520324A108015
:100EB0003248026852F002020260314A1160026850
:100EC00052F00102026001BD2DE9F0470400002646
:100ED0002B480768274890F8008008FB04F85FF06B
:100EE0000009FFF7B5FF2748D0F800A001680D0002
:100EF0005545FBD0554504D21AEB0909B9EB050954
:100F000005E017EB0909B9EB05091AEB0909AA462F
:100F1000C145EBD3FFF7A0FFBDE8F08738B504006B
:100F200011480078002816D017480078002812D100
:100F3000114D2000298880B2884206D3200080B25B
:100F4000298890FBF1F0FFF78BFFA4B2288894FB6F
:100F5000F0F100FB1144200080B24FF47A71484355
:100F6000FFF7B2FF31BD0000C60D002000000020D9
:100F700000127A00BE0D0020BC0D002010E000E041
:100F800014E000E018E000E0C10D00200949014331
:100F9000094A11607047042805D108490A6852F0CF
:100FA00004020A6004E005490A6832F004020A609B
:100FB000704700000000FA050CED00E010E000E0D2
:100FC00080B53E49086850F0010008603C4A13684B
:100FD0003C48034013600B683B4803400B600868C3
:100FE00030F480200860106830F4FE0010605FF478
:100FF0001F003649086000F005F85FF000603449D2
:10100000086001BD80B500F001F801BD82B000208C
:101010000190002000902949086850F48030086051
:10102000086810F4003000900198401C019000986E
:10103000002803D10198B0F5A06FF1D108688003B2
:1010400002D50120009001E00020009000980128C6
:1010500031D12048026852F0100202600268920802
:1010600092000260026852F00202026014480268B4
:10107000026002680260026852F4806202600268E4
:1010800032F47C120260026852F4E81202600A68CC
:1010900052F080720A600A689201FCD501688908E2
:1010A00089000160016851F002010160016811F0DE
:1010B0000C010829FAD102B070470000001002406C
:1010C000041002400000FFF8FFFFF6FE0810024087
:1010D00008ED00E0002002400000010002000100D5
:1010E00003000100020001000400010002000100F1
:1010F00003000100020001000500010002000100E0
:1011000003000100020001000400010002000100D0
:1011100003000100020001000600010002000100BE
:1011200003000100020001000400010002000100B0
:10113000030001000200010005000100020001009F
:101140000300010002000100040001000200010090
:10115000030001000200010007000100020001007D
:101160000300010002000100040001000200010070
:10117000030001000200010005000100020001005F
:101180000300010002000100040001000200010050
:10119000030001000200010006000100020001003E
:1011A0000300010002000100040001000200010030
:1011B000030001000200010005000100020001001F
:1011C0000300010002000100040001000200010010
:1011D0000300010002000100F0B5002200230024FA
:1011E00000250026002791F803C01CF00F0C91F891
:1011F00003E05FEACE6E03D591F9022052EA0C0CAF
:101200000A7812062CD00268160000221400082C5E
:1012100025D25FF0010E1EFA04F215000A882A405A
:101220001300AB4219D1A20015000F22AA401700EB
:10123000BE431CFA05F2164391F90320282A04D173
:101240001EFA04FEC0F814E007E091F90320482AD2
:1012500003D11EFA04FEC0F810E0641CD7E7066054
:101260000A88B2F5807F30DB426816000022140045
:10127000082C29D25FF0010E14F108021EFA02F2C6
:1012800015000A882A401300AB421BD1A2001500AA
:101290000F22AA401700BE431CFA05F2164391F92B
:1012A0000320282A04D114F108021EFA02F2426136
:1012B00091F90320482A05D114F108021EFA02FE12
:1012C000C0F810E0641CD3E74660F0BD0A0092B29B
:1012D0000261704780B5FFF7D5FD4FF4A060FFF7BE
:1012E00055FE00F053F8FEF723FF0A23224A00219F
:1012F0000FF20D00FFF7BCFBFEF7C1FF002002BD9F
:1013000070B504000025FFF763FB060007231B4AA6
:1013100000210FF22500FFF7ABFB0623184A00213E
:101320000FF23500FFF7A4FB0A20FFF7E2FC3000C4
:10133000FFF752FB70BD000038B50400114D0020CE
:1013400028605020FFF7EAFD012028604FF4667006
:10135000FFF7E4FDF2E7000038B504000A4D002075
:1013600028604FF49670FFF7D9FD012028604FF4F4
:101370009670FFF7D3FDF1E7F0080020F009002098
:10138000F00A0020A0012142888122421CB50121DF
:10139000242000F025F84FF48070ADF800001020F4
:1013A0008DF8030003208DF802000B4C69462000E5
:1013B000FFF712FF4FF480712000FFF787FF042032
:1013C000ADF80000054C69462000FFF705FF042139
:1013D0002000FFF77BFF13BD00080140001401400F
:1013E0000A0052B2002A04D0044A1368034313606F
:1013F00003E0024A136883431360704718100240E9
:1014000030B4002513E050F8042BD30744BFA9F1F2
:1014100001039A18091F042942F8045BFAD2134603
:101420008C0744BF15809B1CC90748BF1D7050F82E
:10143000041B0029E7D130BC704730B450F8041BBE
:1014400079B10268436802440830DC0744BFA9F15F
:101450000104E31852F8045B43F8045B091FF9D157
:10146000ECE730BC70477047FEE7FEE7FEE7FEE7BB
:101470007047704710B5074979441831064C7C44D1
:10148000163404E00A68081D114488470146A14249
:10149000F8D110BD080000002800000065FFFFFF24
:1014A000C80D000004000020000000008FFFFFFFB7
:1014B000040000007801000000000020000000008F
:1014C00000F00DF8002801D0FFF7D4FFAFF3008043
:1014D0000020AFF30080FFF7FDFE00F002F80120CE
:1014E000704700F001B800000746384600F002F8E7
:1014F000FBE700002021090326311820ABBEF9E7E5
:1015000075432F4F532D49492049646C65000000F5
:1015100075432F4F532D49492053746174000000C7
:101520000148804701480047C10F000831150008F5
:10153000AFF30080AFF30080FFF7C2FFFFF7FEBFFD
:10154000FFF7FEBFFFF7FEBFFFF7FEBFFFF7FEBFCF
:10155000FFF7FEBFFFF7FEBFFFF7FEBFFFF7FEBFBF
:10156000FFF7FEBFFFF7FEBFFFF7FEBFFFF7FEBFAF
:10157000FFF7FEBFFFF7FEBFFFF7FEBFFFF7FEBF9F
:10158000FFF7FEBFFFF7FEBFFFF7FEBFFFF7FEBF8F
:10159000FFF7FEBFFFF7FEBFFFF7FEBFFFF7FEBF7F
:1015A000FFF7FEBFFFF7FEBFFFF7FEBFFFF7FEBF6F
:1015B000FFF7FEBFFFF7FEBFFFF7FEBFFFF7FEBF5F
:1015C000FFF7FEBFFFF7FEBFFFF7FEBFFFF7FEBF4F
:1015D000FFF7FEBFFFF7FEBFFFF7FEBFFFF7FEBF3F
:1015E000FFF7FEBFFFF7FEBFFFF7FEBFFFF7FEBF2F
:1015F000FFF7FEBFFFF7FEBFFFF7FEBFFFF7FEBF1F
:10160000FFF7FEBFFFF7FEBFFFF7FEBFFFF7FEBF0E
:10161000FFF7FEBFFFF7FEBFFFF7FEBFFFF7FEBFFE
:10162000FFF7FEBFFFF7FEBFFFF7FEBF00A24A04B1
:0400000508001531A9
:00000001FF
